:020000040800F2
:10000000D02600209901000839210008511D000860
:100010001D20000831040008E1290008000000004C
:1000200000000000000000000000000001010008C6
:100030004B040008000000004501000805240008EA
:10004000B3010008B3010008B3010008B3010008C0
:10005000B3010008B3010008B3010008B3010008B0
:10006000B3010008B3010008B3010008B3010008A0
:10007000B3010008B3010008B3010008B301000890
:10008000B3010008B3010008B3010008B301000880
:10009000B3010008B3010008B3010008B301000870
:1000A000B3010008AD240008B3010008B301000843
:1000B000B3010008B301000800000000B30100080C
:1000C000B30100080000000000000000B3010008B8
:1000D00000000000FD2800080929000800000000B9
:1000E000B3010008B3010008B3010008DFF80CD029
:1000F00000F018F900480047952A0008D026002093
:10010000224B19680868B0E8F00F80F30988BFF344
:100110006F8F4FF0000080F311884EF00D0E704786
:100120000000000006480068006880F3088862B696
:1001300061B6BFF34F8FBFF36F8F00DF00BF00BF0B
:1001400008ED00E0EFF30980BFF36F8F0F4B1A68E3
:1001500020E9F00F106008B54FF0500080F31188CF
:10016000BFF34F8FBFF36F8F03F036F84FF00000EF
:1001700080F31188BDE8084019680868B0E8F00FFE
:1001800080F30988BFF36F8F704700BF2000002005
:10019000EFF3058070470000064880470648004797
:1001A000FEE7FEE7FEE7FEE7FEE7FEE7FEE7FEE727
:1001B000FEE7FEE7A9240008ED00000840EA01037D
:1001C0009B0703D009E008C9121F08C0042AFAD20D
:1001D00003E011F8013B00F8013B521EF9D27047D1
:1001E000D2B201E000F8012B491EFBD27047002279
:1001F000F6E710B513460A4604461946FFF7F0FF26
:10020000204610BDF0B480EA0102D40F4200B2EBE8
:10021000410F02D20246084611464A0042D0C30DA1
:10022000DDB2C1F3C752AD1A202D35DAC1F3160184
:1002300041F4000204B15242C5F1200602FA06F16F
:100240002A411044B3EBD05F23D0C4B1012DA0EB01
:10025000C35009DCF0BC4FF0004202EAC352DBB2EB
:1002600000F5000000F02FB8400000F1807000EBB6
:10027000C350A0F1807040EAD170490009E04908FC
:1002800041EAC071A0EBC35000F50000400800EB4C
:10029000C350F0BC00F00EB86142012202EB4101F4
:1002A000001BF6E7F0BC704781F00041AAE780F040
:1002B0000040A7E70029A8BF7047401C490008BFBD
:1002C00020F00100704710B4B0FA80FC00FA0CF086
:1002D00050EA010404BF10BC704749B1CCF12004BE
:1002E00021FA04F411FA0CF118BF0121214308434B
:1002F000A3EB0C01CB1D4FEA00614FEA102042BF77
:10030000002010BC704700EBC35010440029A4BF6C
:1003100010BC7047401C490008BF20F0010010BC11
:1003200070470000064C074D06E0E06840F001030E
:1003300094E8070098471034AC42F6D3FFF7DAFE92
:10034000A8350008C835000870B504460068816803
:10035000C943C90717D1816821F00101816000F00C
:1003600019FC05460AE000BF00F014FC401B0228FF
:1003700004D920688068C043C00706D02068806820
:10038000C043C007F0D0002070BDA06A40F010004C
:10039000A062E06A40F00100E062012070BD000050
:1003A000F8B500260446009600688168C943C9076D
:1003B0002DD0816841F0010181601648164900681E
:1003C000B0FBF1F000E0401E00900028FBD100F0EF
:1003D000E1FB054616E000BF00F0DCFB401B0228F5
:1003E00010D920688068C043C0070BD0A06A40F0D5
:1003F0001000A062E06A40F00100E06284F824602E
:100400000120F8BD20688068C043C007E4D1002007
:10041000F8BD00001400002040420F0000210A46F1
:1004200002E04254491CC9B2435C002BF9D1704729
:10043000FEE7034610B50020024603E09C5C6040E6
:10044000521CD2B28A42F9D310BD704772B6FEE791
:1004500010B5074800F0E8F9FF21054800F046F91B
:1004600018B9034800F084F80446204610BD000087
:10047000D8020020F8B50024009490F824202546E6
:10048000012A12D0012280F824204A681F23072A5B
:100490000DD20668776B521E02EB820293409F4397
:1004A0000B6893401F43776319E00220F8BD06688C
:1004B0000D2A0AD2376BD21F02EB820293409F4370
:1004C0000B6893401F43376309E0F76A0D3A02EB6C
:1004D000820293409F430B6893401F43F7620A6870
:1004E000072306680A2A0AD3F7680A3A02EB42028F
:1004F00093409F438B6893401F43F76008E0376940
:1005000002EB420293409F438B6893401F43376145
:100510000A68102A01D0112A20D1124B02689A428F
:1005200017D193681B0219D4936843F400039360B6
:100530000968102912D10C490C4A0968B1FBF2F183
:1005400001EB8101490000E0491E00910029FBD127
:1005500004E0816A41F020018162012480F8245086
:100560002046F8BD002401401400002040420F0046
:100570000068C06C704700002DE9F0414FF00007A3
:1005800004003D467ED0A06A002628B9E66284F8C1
:100590002460204600F07EF82046FFF7D5FEA16AD1
:1005A00001F01001014304D0A06A40F01000A062E5
:1005B00068E0A16A21F4885141F00201A1626268F9
:1005C000E169237B0A4347EA43010A43A1684FF4E8
:1005D0008077B94208D0012906D0002194F814C0D0
:1005E000BCF1010F02D00AE03946F7E7F3B1A36A84
:1005F00043F02003A362E36A43F00103E36223684C
:10060000D3F804C02CF4694C4CEA010CC3F804C0C4
:1006100023689968DFF870C001EA0C011143996002
:10062000A168B9420BD0012909D00CE0DFF85CC009
:10063000A3690CEB43330B4343F40061DFE7218AEA
:100640000D05A5F580152168CB6A23F470032B43B3
:10065000CB62216889680E4B1940914208D1E6624D
:10066000A16A21F0020141F00101A162BDE8F0811F
:10067000A06A20F0020040F01000A062E06A40F0A2
:100680000100E0620120F1E7FDF7E1FF00E0FFFF7C
:10069000FE0E1FFF00B585B000210091019102916F
:1006A000039100680E49884218D10E48816941F4CF
:1006B00000718161816901F400710491816941F0E7
:1006C000080181618069694600F0080004900220F9
:1006D000009003200190044800F076F905B000BDB9
:1006E0000024014000100240000C01402DE9F843B5
:1006F00000270D460446009700F04CFA804620681B
:100700008168C90508D5A06A40F02000A06284F87D
:1007100024700120BDE8F8834168C90503D4C06A8C
:1007200010F4700F2AD0022000F0FEFA3B4909684D
:10073000B1FBF0F62068036939490B424FEA6101C9
:100740004FEAA1121FD1C3684FEA611C13EA0C0FD4
:1007500019D103690B4225D1C068104222D114205F
:1007600023E0681C0AD02DB100F014FAA0EB0800B9
:10077000A84203D920680068800725D52068006852
:100780008007EED52DE003690B4202D1C16811420A
:1007900006D0026923490A4206D1C068084203D143
:1007A000542002E0292000E0FC204643009816E097
:1007B000681C11D02DB100F0EDF9A0EB0800A842A3
:1007C0000AD90098B04207D2A06A40F00400A062A3
:1007D00084F8247003209DE70098401C0090B042EC
:1007E000E6D321686FF012000860A06A40F4007040
:1007F000A06220688068C0F3424007280CD1207BAB
:1008000050B9A06A20F48070A062A06AC00403D42A
:10081000A06A40F00100A06200207BE714000020E5
:10082000244992244992240070B5044690F824008B
:1008300001280DD0012084F824002046FFF7B0FDE8
:1008400002004FF0000005D084F82400104670BD6F
:10085000022070BDA16A40F20123994341F48071E6
:10086000A1621F4D23681F49AB4218D10E6816F4D0
:10087000702F14D0A66A46F48016A6620E6876051C
:1008800005D5A66A26F4005646F48056A662A66AE6
:10089000F6040AD5E66A26F00606E66206E0A66ACF
:1008A00026F48016A6625E68E9E7E06284F8240018
:1008B0006FF00200186020688368C3F34243072B7F
:1008C00005D1A84208D1096811F4702F04D08168BD
:1008D00041F480118160B9E7816841F4A001F9E732
:1008E000002801400424014010B590F82110002296
:1008F000022905D00421816380F82020012010BD49
:1009000001680B6823F00E030B6001680B6823F08D
:1009100001030B6090F84030C46B012101FA03F32E
:10092000636080F8211080F82020104610BD000080
:1009300010B590F821100024022903D0042181630E
:1009400001243DE001680A6822F00E020A60016895
:100950000A6822F001020A601A4A0168914201D134
:10096000012121E0174A1432914201D110211BE0EC
:10097000144A2832914201D1891515E0114A3C32BE
:10098000914201D189140FE00E4A5032914202D1B6
:100990004FF4803108E00B4A6432914202D14FF4A7
:1009A000801101E04FF08071064A083A5160012140
:1009B00080F82110002180F82010416B01B1884798
:1009C000204610BD080002402DE9F84FDFF89C9149
:1009D0000024A9F1040B23460F2709F1040AABF107
:1009E000040EBBE00125A5402A40AA4276D1DFF8DB
:1009F00080C14E68A6EB0C0866452BD00DDC032E9B
:100A000034D005DC36B3012E19D0022E2FD11BE0D5
:100A1000112E16D0122E2AD119E0B8F5881F19D040
:100A200006DCB8F5803F15D0B8F5801F1FD111E066
:100A3000B8F5001F0ED0B8F5041F18D10AE0CB6836
:100A400015E0CB681B1D12E0CB6808330FE0CB68C4
:100A50000C330CE08B682BB1012B4FF0080303D053
:100A6000456104E0042302E0056100E00023FF2A61
:100A700001D8064601E000F104064FEA840501D9D9
:100A8000A5F12005D6F8008007FA05FC28EA0C0835
:100A900003FA05F548EA0508C6F800804D68ED0040
:100AA0005BD5344DAE6946F00106AE61AD6924F008
:100AB000030605F0010500952F4D06EB050CDCF84B
:100AC0000850A607360F07FA06F825EA0805DFF8EA
:100AD000AC80404503D14FF0000810E03DE0DFF866
:100AE000A080404502D14FF0010808E0DFF8948073
:100AF000404502D14FF0020801E04FF0030808FA28
:100B000006F848EA0508CCF808804D68D9F8006076
:100B1000ED024D4601D5164300E096432E604D6828
:100B2000DAF80060AD02554601D5164300E0964361
:100B30002E604D68DBF80060AD035D4601D51643BD
:100B400000E096432E604D68DEF80060ED037546C8
:100B500001D5164300E096432E60641C0A6832FA01
:100B600004F57FF43FAFBDE8F88F000008040140B2
:100B70000000111000100240000001400008014078
:100B8000000C0140001001400AB1016170470904E6
:100B9000FBE7000001488068704700000800002063
:100BA0000248816802781144816070470800002083
:100BB000074810B5016841F010010160032000F002
:100BC000A1F80F2000F006F800F04AF8002010BD50
:100BD0000020024030B505461C4887B0816941F4C9
:100BE00000618161806906A900F40060009001A89D
:100BF00000F0F8F900F026FA1549164AB0FBF1F1B9
:100C00001548491E0260416040F2E7320021C0E908
:100C100003218160816100F00DFC040012D10E48B7
:100C200000F036FC04000DD1192000F03DF8102D25
:100C300007D200222946192000F044F80748056031
:100C400000E0012407B0204630BD00000010024043
:100C500040420F00002C0140E00300200C00002067
:100C60000F4808B5816941F001018161816901F096
:100C700001010091C16941F08051C161C069002248
:100C800000F0805000900F21901E00F01BF80548E6
:100C9000416821F0E06141F00071416008BD000051
:100CA0000010024000000140002809DB00F01F0294
:100CB000012191404009800000F1E020C0F80011BE
:100CC00070470000F0B40E4B1B680C46C3F30223C0
:100CD000C3F10705042D00D90425191D072901D2E8
:100CE000002300E0DB1E012606FA05F1491E214023
:100CF00099409E40761E16403143F0BC01F08EBEF6
:100D00000CED00E0064900F0070208684FF6FF030B
:100D1000184040EA0220034A104308607047000070
:100D20000CED00E00000FA0510B501460020234C50
:100D3000012922D0022939D010291DD161682268E9
:100D4000D20119D51E48C1F38342C903805C0AD57C
:100D500061681B4AC1F34041921E515C194AB2FBC3
:100D6000F1F1484301E0184948436168490203D45E
:100D700040000321B0FBF1F010BD226AC2F3012153
:100D8000012903D1920701D5C80310BD022905D15D
:100D9000626A920702D549F6404010BD0329FCD192
:100DA00021688903F9D54FF2244010BD00F04AF9BB
:100DB0006168C1F38131491C4900DBE70010024042
:100DC0006435000800127A0000093D002DE9F8435F
:100DD00005460078354CC00754D0E0690026C000B5
:100DE00008D4E06940F08050E061E069012600F03D
:100DF000805000902E480168C90512D401688046D1
:100E000041F480710160FFF7C5FE074605E000BFB1
:100E1000FFF7C0FEC01B642823D8D8F80000C00527
:100E2000F6D5206A10F4407021D0A98801F44071F1
:100E300081421CD0206A1F49012220F440700A60C0
:100E400000220A602062C00711D0FFF7A3FE074608
:100E500041F2883808E000BFFFF79CFEC11B414506
:100E600002D90320BDE8F883206A8007F4D5206A00
:100E7000696820F44070084320621EB1E06920F0E8
:100E80008050E0612878800705D56068A96820F463
:100E90004040084360602878C00605D56068E9686E
:100EA00020F48000084360600020DBE7001002406F
:100EB00000700040400442422DE9F0470F46050013
:100EC00061D0434E306800F00700B84209D2306864
:100ED00020F0070038433060306800F00700B84267
:100EE00051D128683B4C810712D5400703D5606873
:100EF00040F4E06060602878000703D5606840F443
:100F0000605060606068A96820F0F000084360608D
:100F10002878C00728D06868012810D021680228E6
:100F200010D0890700292EDA616821F003010143FE
:100F30006160FFF72FFE804641F288390DE021689D
:100F40008903EFE78901EDE7FFF724FEA0EB080135
:100F5000494502D90320BDE8F0876068696800F060
:100F60000C00B0EB810FEFD1306800F00700B84201
:100F70000BD9306820F0070038433060306800F04B
:100F80000700B84201D00120E5E72878400705D5E1
:100F90006068E96820F4E060084360602878000732
:100FA00006D56068296920F4605040EAC10060609D
:100FB00000F058F86168084AC1F30311515CC84059
:100FC0000649086006480068FFF704FE0020C2E7F3
:100FD0000020024000100240743500081400002078
:100FE0000C0000200F2202600C4A536803F0030338
:100FF0004360536803F0F0038360536803F4E063D5
:10100000C36052684FF4E06303EAD202026104480D
:10101000006800F007000860704700000010024000
:10102000002002400448054900684968044AC1F3A9
:101030000221515CC840704714000020001002409B
:10104000843500080448054900684968044AC1F32A
:10105000C221515CC84070471400002000100240BB
:10106000843500080E4A51680E4801F00C03042B29
:1010700011D0082B0FD10C48C1F38343C903C05CC6
:101080000AD55168084AC1F34041921E515C054A95
:101090005043B0FBF1F070470449484370470000EB
:1010A0000010024000127A005235000800093D008D
:1010B0002DE9F84F040070D02078C04DC00749D00A
:1010C0006868C0F38100012807D06868C0F3810018
:1010D000022809D16868C00306D52868800339D57D
:1010E00060680028E7D035E06068B0F5803F0BD03D
:1010F00010B1B0F5A02F11D0286820F480302860FE
:10110000286820F4802002E0286840F480302860BD
:10111000606890B1FFF73EFD06460AE0286840F49B
:1011200080202860F0E700BFFFF734FD801B6428B3
:1011300073D828688003F7D50CE0FFF72BFD06462F
:1011400005E000BFFFF726FD801B6428F0D8286863
:101150008003F7D420789A4E80074FF001094FF0B2
:10116000000839D5686810F00C0F07D06868C0F324
:101170008100022809D16868C00306D42868800766
:1011800014D52069012808D110E02069B0B1C6F853
:101190000090FFF7FFFC074605E00AE1FFF7FAFCC5
:1011A000C01B0228C4D828688007F7D52868616961
:1011B00020F0F80040EAC10028600DE0C6F8008089
:1011C000FFF7E8FC074604E0FFF7E4FCC01B022839
:1011D00023D828688007F7D4207800072CD57948D1
:1011E000A169D9B1C0F80090FFF7D4FC074604E02C
:1011F000FFF7D0FCC01B02280FD8686A8007F7D51C
:1012000071484FF4FA510068B0FBF1F0009000BF54
:101210000098411E0091FAD20EE080E0C0F80080F4
:10122000FFF7B8FC074604E0FFF7B4FCC01B022838
:1012300075D8686A8007F7D42078400760D5E869D8
:101240000027C00008D4E86940F08050E861E869F0
:10125000012700F0805000905C480168C90513D454
:101260000168834641F480710160FFF793FC824678
:1012700006E000BFFFF78EFCA0EB0A0064284ED802
:10128000DBF80000C005F5D5E06801280AD008B1F8
:10129000052813D0286A20F001002862286A20F06F
:1012A000040002E0286A40F001002862E06841F290
:1012B000883B98B1FFF76EFC82460BE0286A40F04D
:1012C00004002862EEE700BFFFF764FCA0EB0A0110
:1012D00059455AD8286A8007F6D50CE0FFF75AFC22
:1012E000824605E0FFF756FCA0EB0A0159454CD8B1
:1012F000286A8007F6D41FB1E86920F08050E861C1
:10130000E06988B36968C1F38101022944D00228E9
:10131000C6F8608004D0FFF73DFC044638E034E0B6
:10132000FFF738FC074604E0FFF734FCC01B022837
:101330002BD828688001F7D4206AB0F5803F05D10A
:101340006868A16820F4003008436860D4E90801A7
:101350000843696821F4741108436860C6F8609016
:10136000FFF718FC044606E025E000BFFFF712FC7B
:10137000001B022809D828688001F7D51BE000BFB0
:10138000FFF708FC001B022802D90320BDE8F88FF4
:1013900028688001F4D40EE00128F7D06868226A3A
:1013A00000F48031914204D1616A00F470108842E7
:1013B00001D00120EAE70020E8E700000010024029
:1013C00000004242800442421400002000700040AD
:1013D0007047704770B590F83C20012A23D0012453
:1013E00080F83C40022280F83D2003685A689D68DE
:1013F00022F070060A6832435A600C4B02689A4227
:1014000005D0B2F1804F02D0094B9A4204D149680D
:1014100025F080031943916080F83D40002180F859
:101420003C10084670BD022070BD0000002C014039
:101430000004004010B5040003D094F83D0010B142
:1014400007E0012010BD002084F83C00204600F099
:101450001EF8022084F83D00211D206801F02CF8C0
:10146000012084F8460084F83E0084F83F0084F8A8
:10147000400084F8410084F8420084F8430084F876
:10148000440084F8450084F83D00002010BD7047FA
:1014900090F83D10012901D001207047022180F809
:1014A0003D100168CA6842F00102CA6000680A493A
:1014B000884205D0B0F1804F02D00849884204D15B
:1014C000816801F00701062903D0016841F001019C
:1014D0000160002070470000002C01400004004023
:1014E000704770B50446006801694FF00005C943B4
:1014F000890715D4C168C943890711D4E91E016160
:1015000001202077206880698007204602D0FFF7FD
:10151000E7FF04E000F0BCF8204600F05FF9257713
:1015200020680169C943490717D4C168C9434907FD
:1015300013D46FF0040101610220207720688069D4
:1015400010F4407F204602D0FFF7CAFF04E000F00D
:101550009FF8204600F042F9257720680169C943C9
:10156000090716D4C168C943090712D46FF00801EE
:101570000161042020772068C0698007204602D0DE
:10158000FFF7AEFF04E000F083F8204600F026F9F4
:10159000257720680169C943C90617D4C168C943C2
:1015A000C90613D46FF0100101610820207720686C
:1015B000C06910F4407F204602D0FFF791FF04E09D
:1015C00000F066F8204600F009F9257720680169E7
:1015D000C943C90708D1C168C943C90704D1891ED5
:1015E0000161204600F046F920680169C9430906F7
:1015F00009D4C168C943090605D46FF080010161AF
:101600002046FFF7E5FE20680169C943490609D471
:10161000C168C943490605D46FF040010161204605
:1016200000F032F920680169C94389060BD4C1680A
:10163000C943890607D46FF0200101612046BDE847
:101640007040FFF7C6BE70BD00B585B000210091A7
:101650000191029103910068B0F1804F11D10A48C5
:10166000816941F0040181618069694600F00400EC
:101670000490032000900220019003900348FFF79C
:10168000A3F905B000BD00000010024000080140B1
:10169000704770B5044690F83C0000260D460128BE
:1016A0000FD0012084F83C006AB1042A1DD0082A1A
:1016B0002FD00C2A3FD00126002084F83C00304671
:1016C00070BD022070BD206800F032FF2068816983
:1016D00041F0080181612068816921F00401816184
:1016E000206881692A69114311E0206800F048FFF1
:1016F0002068816941F4006181612068816921F479
:1017000080618161206881692A6941EA02218161E1
:10171000D2E7206800F060FF2068C16941F008014D
:10172000C1612068C16921F00401C1612068C169FB
:101730002A69114311E0206800F07AFF2068C1692E
:1017400041F40061C1612068C16921F48061C16117
:101750002068C1692A6941EA0221C161ACE710B57C
:10176000040003D094F83D0010B107E0012010BD43
:10177000002084F83C00204600F01EF8022084F887
:101780003D00211D206800F097FE012084F84600EE
:1017900084F83E0084F83F0084F8400084F841005B
:1017A00084F8420084F8430084F8440084F845003B
:1017B00084F83D00002010BD08B50068B0F1804FEE
:1017C00008D10548C16941F00101C161C06900F05B
:1017D0000100009008BD00000010024070470000AA
:1017E00010B50446022249B104290ED0082913D0AD
:1017F00094F84100012816D0012010BD94F83E0055
:101800000128F9D184F83E200FE094F83F00012828
:10181000F2D184F83F2008E094F840000128EBD191
:1018200084F8402001E084F841200122206800F083
:1018300071FE0E492068884203D1426C42F4004296
:1018400042642068884205D0B0F1804F02D0084938
:10185000884204D1816801F00701062903D001689C
:1018600041F001010160002010BD0000002C01408A
:101870000004004000680349884201D1FFF790B995
:1018800070470000002C014070477047704700000F
:10189000F8B5016804460868CA684B6910F00F0F74
:1018A0004FF000055AD003F0010602F49077374359
:1018B00065D0C10705D0D10503D5616C41F00101A8
:1018C0006164410705D5D90703D0616C41F002017D
:1018D0006164810705D5D90703D0616C41F004012B
:1018E0006164010707D502F02001314303D0616C28
:1018F00041F008016164616C00293BD0800604D589
:10190000900602D5204600F0E4FE20684069616C34
:10191000C0F3801001F00801014320462BD000F0F5
:10192000B1FE20684069400621D52068143050E897
:10193000001F21F0400140E80012002AF5D1E06BC1
:10194000A8B16D494163E06BFEF7F2FF002811D0AA
:10195000E06B416B01B0BDE8F040084783060ED54F
:1019600093060CD52046BDE8F84000F0B2BE2046F4
:10197000FFF78CFFF8BDFFF789FF6564F8BD266BA4
:101980002023012E7CD1C6067AD5D60678D50868E4
:101990004868009048694FF00206400640D5E16B68
:1019A000086840680004000CE8D0A28D8242E5D9A6
:1019B000E085886920282DD020680C3050E8001F71
:1019C00021F4807140E80012002AF5D12168143119
:1019D00051E8000F20F0010041E80002002AF5D193
:1019E0002068143050E8001F21F0400140E8001248
:1019F000002AF5D184F84230256320680C3050E885
:101A0000001F21F0100140E80012002AF5D1E06B20
:101A1000FEF76AFF6663A08DE18D401A81B22AE06D
:101A2000A08DE18D401A81B2E08D0028A6D000295A
:101A3000A4D022680C3252E8000F20F4907042E8E3
:101A40000007002FF5D12068143050E8002F22F055
:101A5000010240E80027002FF5D184F842302563C9
:101A600020680C3050E8002F22F0100240E80023DC
:101A7000002BF5D166632046FFF707FFF8BDFFE7AF
:101A800005062BD5150629D594F841002128F5D156
:101A9000A068B0F5805F01D12069B0B1206A411C17
:101AA0002162216800784860E08C401E0004000C30
:101AB000E084E3D12068C16821F08001C160206822
:101AC000C16841F04001C160D8E7206A0088C0F3D6
:101AD00008004860206A801C2062E5E74006CDD5FA
:101AE0005006CBD5CA68204622F04002CA6084F86E
:101AF000413000F02CF9C1E77526000870B50400EC
:101B000004D094F84100002510B106E0012070BD1A
:101B100084F84050204600F023F8242084F8410047
:101B20002068C16821F40051C160204600F032FEF7
:101B30002068016921F4904101612068416921F028
:101B40002A0141612068C16841F40051C1606564A7
:101B5000202084F8410084F842006563002070BDB5
:101B600070B586B0002400940194029403942E4E24
:101B700003682E49022003222D4DB34226D18B69E2
:101B800043F480438B618B6903F4804304938B6936
:101B900043F004038B618969039201F0040104910D
:101BA0000102CDE9001069462846FEF70DFF281511
:101BB000CDE90004694628460294FEF705FF00229D
:101BC00005212520FFF77EF8252028E0194EB34295
:101BD00027D1CB6943F40033CB61CB6903F40033E5
:101BE00004938B6943F004038B618969039201F0CC
:101BF000040104910421CDE9001069462846FEF74E
:101C0000E3FE0820CDE90004694628460294FEF769
:101C1000DBFE002205212620FFF754F82620FFF7DF
:101C200043F806B070BD00000038014000100240CB
:101C3000000801400044004090F84230202B01D0C1
:101C40000220704721B11AB10023036300F0FEBDEA
:101C50000120704770B5144C207900F05BFE607174
:101C6000012808D0022802D0032806D014E02078EA
:101C7000042811D0032020700EE0207800250428CD
:101C800009D10A4E4FF07E51F06CFEF70DFBF06467
:101C9000B0F5000F00DA2570BDE87040024901225E
:101CA000091D0348FFF7C8BF18000020801E002050
:101CB000500300202DE9F843044690F841001F46E8
:101CC00016460D46202802D00220BDE8F8837DB1DB
:101CD00076B100206064212084F84100FEF75AFFAD
:101CE000A6848046E684A068B0F5805F02D003E059
:101CF0000120EAE7206910B12E4600250EE00026FB
:101D00000CE08021204600F0BCFDA0B9AEB116F871
:101D1000010B21684860E08C401EE084E08C434663
:101D20004FF0000200970028EBD14FF04001204611
:101D300000F0A7FD30B10320C7E735F8020BC0F370
:101D40000800E6E7202084F841000020BDE7704746
:101D5000FEE700002DE9F0414FF40051124B4C100A
:101D6000124D134F4E1160B101281AD100221846AE
:101D7000FEF70AFF002221462846FEF705FF002253
:101D800009E001221846FEF7FFFE012221462846FF
:101D9000FEF7FAFE012231463846BDE8F041FEF773
:101DA000F3BEBDE8F081000000100140000C0140CE
:101DB000000801403EB500211148009101910F4AF1
:101DC0000291026001248160047301754FF4602266
:101DD0000461C2614160FEF7CFFB08B1FEF736FB3C
:101DE0000920CDE900040320029069460448FEF76B
:101DF00041FB002801D0FEF729FB3EBD0024014035
:101E0000D802002010B58EB01C220B496846FEF7A0
:101E1000D5F90021684600F06CFE084C06491C22EA
:101E200020601C3107A8FEF7C9F9002107A800F0BF
:101E300060FE60600EB010BD183500080000002084
:101E40002DE9F04786B000200090019002900390A9
:101E50002A48816941F010018161816901F0100116
:101E60000491816941F020018161816901F02001C3
:101E70000491816941F004018161816901F00401EB
:101E80000491816941F0080181618069012200F0BB
:101E90000800DFF86C805403049021464046FEF7AA
:101EA00073FE0122DFF85C90160331464846FEF7C8
:101EB0006BFE0122DFF850A0170239465046FEF7AC
:101EC00063FE009401240325694640460194CDE950
:101ED0000245FEF779FDCDE9006469464846CDE943
:101EE0000245FEF771FDCDE9007469465046CDE923
:101EF0000245FEF769FD06B0BDE8F087001002401C
:101F000000100140000C01400008014010B58AB0EB
:101F1000002407941C2168460894FEF768F91A48C3
:101F20004FF0804101604721C0E9011440F2E731E0
:101F3000C0E903148461FFF712FC08B1FEF786FACA
:101F4000079407A910480894FFF744FA08B1FEF770
:101F50007DFA7020CDE90004042004900022694637
:101F600002940948FFF795FB08B1FEF76FFA0422C7
:101F700069460548FFF78DFB08B1FEF767FA02488E
:101F8000FFF762FB0AB010BD0803002010B5144C27
:101F900012480C2120604FF4165060600020A060B1
:101FA000E060C4E90401A061E0612046FFF7A6FDFE
:101FB00008B1FEF74BFA00F001FA20680168490603
:101FC000FCD54FF4E13060600548FFF797FD00282D
:101FD00003D0BDE81040FEF739BA10BD003801400B
:101FE000500300200C4810B50A4901604FF4165107
:101FF0004160002181600C22C160C0E9041281614E
:10200000C161FFF77BFD002803D0BDE81040FEF75B
:102010001DBA10BD0044004098030020FEE730B513
:10202000040040F2E7354FF080430BD0002201213D
:10203000184600F082F82246BDE8304002211846DA
:1020400000F07BB82A460121184600F076F82A46AF
:10205000F2E7000000252C46FEF7FAF905440120BE
:1020600001F056F8641CE4B2142CF5D31420B5FB2F
:10207000F0F040F6FF7241F28831904201D3002027
:1020800008E04FF47A724243A0F6FF704042B2FB80
:10209000F0F0081A244C8842206001D9234806E059
:1020A000234A5043B0FBF1F042F210710844A060A3
:1020B00040F2DC5001F02CF82C271E4E40F2E735A0
:1020C0004FF44D7AB94640F6B8386068401C6060FD
:1020D000404504D26843B0FBF8F080B210E007EB53
:1020E0004701C1EBC711B0EBC10F08D909EB490299
:1020F000C2EBC911B0EBC10F01D2504600E0284637
:10210000FFF78DFFD4E90101884202D90020FFF7D3
:1021100086FF6068B04203D300206660FFF77FFF50
:10212000012000F0F5FFD0E7741E0020C027090051
:10213000B000090040420F00FEE7012907D0022944
:1021400007D0032907D0042900D1026470474263F5
:10215000704782637047C2637047000010B500216A
:102160000448FFF73DFBBDE8104004210148FFF79C
:1021700037BB0000080300204FF4FA7000F0C8FFDE
:1021800060A000F043FC502000F0C2FF5FA000F010
:102190003DFC502000F0BCFF5EA000F037FCC820E2
:1021A00000F0B6FF5D4C00264FF0040AC4E90F6A48
:1021B00084F8446084F84560594DA664594F4FF047
:1021C0000308E664DFF8609185F8008007F1420BB0
:1021D0005846FEF723F994F8400094F83C10084460
:1021E000C0B200F0B9F8D9F8000001684906FCD582
:1021F0000220287071E0012802D0022846D060E059
:10220000E06B10B997F84210B9B1C11C18D0002882
:102210002ADD0120FFF79EFD404800F0E3FB434824
:10222000006801684906FCD54FF47A7000F070FF31
:1022300085F800A03E48E06454E06FF0020021E021
:1022400097F8420070B13BA18B4553D00120FFF7B6
:1022500081FD584600F0C6FB344800680168490615
:10226000FCD5E1E72E7031E00020E26B391800EB7D
:102270000212401C91F84210C0B2A1541028F4D3AD
:10228000E06B401CE06385F8008033E0012000F043
:102290003FFF94F84400401CC0B284F84400142866
:1022A00006D394F84500401C84F8450085F800806A
:1022B00094F84500022804D384F8456084F844600B
:1022C000D0E7287810B1042814D10BE01348FEF7AA
:1022D000A5F80020E663FFF73DFD84F8446084F82C
:1022E000456007E00120FFF735FD00F04FF80A20B8
:1022F00000F00EFF012000F00BFF287803283FF4C8
:1023000067AF78E73C533E33000000003C563E3652
:10231000000000003C493E3800000000801E002004
:1023200018000020500400205003002098030020D3
:102330000000204163646262633663366235646123
:10234000633866646235633062376532636266386B
:10235000636664660000000070B50B4C0425002124
:1023600004F8205F61701121A170E07006482946D1
:1023700020300646FEF75DF8207129463046BDE85C
:10238000704000F007BB00005004002070B50A4CFC
:102390000325002004F8205F294660701020A070FB
:1023A000054820300646FEF744F8E07029463046DE
:1023B000BDE8704000F0EEBA5004002070B5104C3B
:1023C0000A25002004F8205F2C216070A170E070C5
:1023D00001212171C2216171A0719820E071242036
:1023E0002072312060720648294620300646FEF7EA
:1023F00020F8A07229463046BDE8704000F0CABA05
:102400005004002010B5502080F31188BFF34F8F87
:10241000BFF36F8F00F0BAFF18B104494FF080503E
:102420000860002080F3118810BD000004ED00E07A
:1024300030B593B028216846FDF7D9FE14210AA8CB
:10244000FDF7D5FE002501200F951095119501048B
:1024500012958DE8230004904FF4E010CDE90810A8
:10246000022407946846FEF723FE08B172B6FEE721
:102470000AA90F2081E831004FF48060CDE90D05F5
:1024800002210AA8FEF718FD08B172B6FEE74FF464
:10249000004011900F940FA8FEF798FC002801D07F
:1024A00072B6FEE713B030BD704700000148FFF779
:1024B00018B80000E003002070B50268134B144CFC
:1024C0004FF08046984203D0B04201D0A04203D1E1
:1024D00022F070054A682A43984203D0B04201D0E6
:1024E000A04203D122F44074CA6822434C6922F00E
:1024F0008002224302608A68C2620A68826298424D
:1025000001D1096901630121416170BD002C0140C5
:102510000004004010B501F01F030121046A994036
:102520008C430462016A9A401143016210BD0000AD
:1025300030B5036A026A22F00102026242688469CD
:1025400024F073050C682C4323F002058B682B43A1
:102550000A4DA8420BD123F00805CB6822F4407243
:102560002B434D6923F0040315438A692A434260D3
:10257000846149684163036230BD0000002C014062
:1025800030B5026A036A23F010030362436884696A
:102590000D6824F4E64444EA05248D6822F0200204
:1025A00042EA05120B4DA8420ED1CD6822F08002FE
:1025B00042EA05124D6923F4406343EA85038D69BD
:1025C00022F0400243EA85034360846149688163E5
:1025D000026230BD002C014030B5036A026A22F469
:1025E000807202624268C46923F4007324F07305A8
:1025F0000C682C438D6843EA05230C4DA8420ED18C
:10260000CD6823F4006343EA05234D6922F4405268
:1026100042EA05128D6923F4806342EA05124260A2
:10262000C4614968C163036230BD0000002C0140F1
:1026300030B5046A026A22F4805202624268C369B9
:102640000D6823F4E64343EA05238D6824F400541F
:1026500044EA0534064DA84204D14D6922F4804273
:1026600042EA85124260C36149680164046230BD78
:10267000002C014010B5406A0021C185C184FFF7DC
:1026800005F910BD01680C3151E8002F22F4907259
:1026900041E80023002BF5D10168143151E8002FE7
:1026A00022F0010241E80023002BF5D1016B012942
:1026B00009D101680C3151E8002F22F0100241E8E5
:1026C0000023002BF5D1202180F842100021016366
:1026D000704708B590F84210222901D0022008BDA9
:1026E00082684FF480539A4201D1016921B1816A15
:1026F0009A421BD04AB10AE00268816A5268C2F36A
:1027000008020A80816A891C08E0026972B10268C5
:10271000526802F07F020A70816A491C8162C18D91
:10272000491E0904090CC18503D01BE002685268E8
:10273000F1E70168CA6822F02002CA600168CA682D
:1027400022F48072CA6001684A6922F001024A617B
:10275000202180F8421000214163026B012A03D03E
:10276000FFF778FA002008BD016301680C3151E8D9
:10277000002F22F0100241E80023002BF5D1016860
:102780000A68D20602D50A6849680091818DFFF770
:102790007CF8E7E770B5044600680169E26821F457
:1027A0004051114301612169A068084361690843F0
:1027B0002168CA6841F20C639A430243CA602068E8
:1027C0004169A26921F44071114341611E492068A9
:1027D000884202D1FEF736FC01E0FEF723FC00EB55
:1027E000C00101EB0012606864218000B2FBF0F3CD
:1027F000B3FBF1F36FF018067343B2FBF0F5B2FBD5
:10280000F0F605EB8305322303EB0515B5FBF1F577
:10281000B6FBF1F605F0F00505EB0615B2FBF0F698
:10282000B2FBF0F0B0FBF1F06FF01802504306EB92
:10283000800003EB0010B0FBF1F0216800F00F0006
:102840002844886070BD00000038014081628285A4
:10285000C28500214164222180F84210016921B122
:102860000168CA6842F48072CA6001684A6942F02D
:1028700001024A610068C16841F02001C160002086
:1028800070472DE9F041984617460E460446069DCE
:1028900027E0681C25D02DB1FEF77CF9A0EB0800DD
:1028A000A8421ED920680C3050E8001F21F4D071D6
:1028B00040E80012002AF5D12068143050E8001FCB
:1028C00021F0010140E80012002AF5D1202084F80F
:1028D000410084F84200002084F840000320BDE855
:1028E000F0812068006836EA000004D00020B84279
:1028F000CFD00020F3E70120F9E700000148FEF700
:10290000C7BF0000500300200148FEF7C1BF000010
:10291000980300201D4910B54B7800225BB18C78DC
:102920007CB11B4B012C0ED9641E8C70CA78985454
:10293000521CCA7012E07F2810D1012048708A70A2
:10294000F7E788700AE08A7011484A705C788078EE
:10295000902C05D0912C06D0AC2C11D0002010BDAD
:1029600078B9022010BD60B9CA70C8781A18401C26
:10297000547AC0B282F84240C8701028F5D302E001
:1029800008B1032010BD012010BD00001800002078
:1029900050040020F0B585B000237F248DF800405E
:1029A0001A466D46491C0DE0AF18865C7E705B1CB4
:1029B000865CDBB27F2E03D1521CD2B2AE1874708B
:1029C000521CD2B28B42EFD3521CD2B24FF6FF73DD
:1029D00029460248FFF76EF905B0F0BD500300200C
:1029E000FEE7000070B5054600244FF6FF7607E0CD
:1029F0002919334601220448FFF75CF9641CA4B28C
:102A0000285D0028F4D170BD98030020014A0249D6
:102A100000F023B87D2A0008800000200907090E75
:102A2000002804DB00F1E02080F80014704700F07B
:102A30000F0000F1E02080F8141D704702E008C884
:102A4000121F08C1002AFAD170477047002001E028
:102A500001C1121F002AFBD170472DE9F041164633
:102A60000F460446002503E03946B047641C6D1C40
:102A700020780028F8D12846BDE8F08113B54FF63C
:102A8000FF73012269460248FFF714F900981CBD44
:102A900098030020FEF78CF8FFF7CAFCFFF7D0F987
:102AA000FFF774FAFFF79EFAFFF784F9FFF72EFAA3
:102AB0000020FFF74FF9FFF751FB0020FFF7AFFAB7
:102AC000012204490448FFF7B7F8FFF79BF900F02B
:102AD0000BF8FEE71C0000205003002001460020F8
:102AE000842900D0C81C704710B500F037FB0020C7
:102AF00010BD7FB50D4604464169B0F9080081B1AB
:102B0000A16971B1FFF7EAFFD4E905128DE807006A
:102B1000D4E900102B46226900F00DFC039004B0AC
:102B200070BDFFF7DBFF03A9CDE90001208A2B462A
:102B300082B2D4E9001000F0D1FB012801D00020BE
:102B4000EDE70398EBE700002DE9F041184C0F4644
:102B5000054666692068001D00F016FA38B920683D
:102B600090F82C1001208840A1698143A161681C64
:102B700007D137B12168BDE8F0410E48091D00F0CA
:102B800047BA20683544B5424560216805D2A0683F
:102B9000BDE8F041091D00F023BA6068091D00F08E
:102BA0001FFA206B854200D22563BDE8F08100004A
:102BB00020000020800500202DE9F041054600F0AE
:102BC00033FA2E4C2069401C206120682C4F10B134
:102BD000E06940B32DE025602069012829D1002655
:102BE00006EB860007EB800000F0ECF9761C072E60
:102BF000F6D323488C3000F0E5F92148A03000F0EE
:102C0000E1F91F48B43000F0DDF91D48C83000F08C
:102C1000D9F91B48DC3000F0D5F919488C306060D8
:102C20001430A06005E02068E96AC06A884200D8D4
:102C30002560E06A401CE062E96A0120A2698840E0
:102C40001043A06101EB810007EB8000291D00F01B
:102C5000DFF900F009FAE06900280CD02068E96A81
:102C6000C06A884207D207494FF080500860BFF31E
:102C70004F8FBFF36F8FBDE8F08100002000002070
:102C8000A404002004ED00E010B5044690F85100C3
:102C900058B101280CD002280FD0502080F31188A1
:102CA000BFF34F8FBFF36F8FFEE7206B00F0F0F99B
:102CB0002046BDE8104000F0EBB910BD10484FF4BD
:102CC000C751420706D0C01D0D4920F00700411A28
:102CD000C1F5C7510B4A00230144C2E9000308397A
:102CE000103A21F0070111604B600B600B1AC0E92C
:102CF000001393604FF000405360D06070470000B5
:102D0000940500206C000020144E154CA6F1C80755
:102D10004FF08058DFF84C9012E000BF00F084F9CB
:102D2000F068C568281D00F02FF92069401E206159
:102D3000E068401EE06000F097F92846FFF7A4FF26
:102D4000E0680028EAD138680128F9D9C9F800807C
:102D5000BFF34F8FBFF36F8FF2E700006C050020C9
:102D60002000002004ED00E02DE9F0479A46DDE95F
:102D7000098481466FF00303206B03EB8202104449
:102D8000089D20F00706700707D0502080F31188B7
:102D9000BFF34F8FBFF36F8FFEE723180A5C83F8F2
:102DA00034200A5C12B1401C1028F6D3002784F8A6
:102DB0004370072D00D30625E562C4E91157201D95
:102DC00000F00BF904F1180000F007F92461C5F1D7
:102DD00007006462A061E76484F850705246494677
:102DE000304600F0BFF82060B8F1000F01D0C8F8FD
:102DF0000040BDE8F087000030B5114900E0114601
:102E00000A688242FBD34B685C18844203D1406855
:102E100018444860084643681C18944209D1084C7D
:102E2000103C2468A24209D052681A4442600A68E1
:102E300012680260814200D0086030BD0460F9E78A
:102E40006C00002006484168096829B14168C968DA
:102E5000C9684968016370474FF0FF31FAE7000025
:102E60002000002008484068401C4FF0500080F3CC
:102E7000118804D0BFF34F8FBFF36F8FFEE7BFF30E
:102E80004F8FBFF36F8FFEE7740000202DE9F041F4
:102E90000546002700F098F9314E306808B9FFF771
:102EA0000DFFF06805424BD1C5B3083568070ED059
:102EB00005F00700C0F108000544680707D050205E
:102EC00080F31188BFF34F8FBFF36F8FFEE72DB3F1
:102ED0007068854234D82248103001460C6801E001
:102EE00020460C466168A94202D221680029F7D128
:102EF00031688C4224D00768216801606068083717
:102F0000411B10290FD96019420708D0502080F3C7
:102F10001188BFF34F8FBFF36F8FFEE710E0416062
:102F20006560FFF769FF61687068401A7060B26899
:102F3000904200D2B060F06801430020C4E9000173
:102F400000F088FA780707D0502080F31188BFF38B
:102F50004F8FBFF36F8FFEE73846BDE8F08100006A
:102F60005C00002010B5031F4FF080741C601B1F15
:102F700021F001011960191F024B0B601439403810
:102F80000A6010BD652E0008D0E9013201699A601F
:102F9000D0E901235A604A68824201D182684A60BE
:102FA000002202610868401E08600868704700003F
:102FB000034B036003F154000860802010607047E9
:102FC0008400002000F108014FF0FF32C0E9011237
:102FD000C1600161002101607047002101617047FB
:102FE00030B50B685A1C02D000F1080202E00269F9
:102FF00004E02246546825689D42FAD953684B6024
:1030000099608A60516008610168491C016030BDA7
:1030100042684A6093688B60936859609160086168
:103020000168491C01607047502080F31188BFF38C
:103030004F8FBFF36F8F0A494868401C48600128D2
:103040000CD10848006810F0FF0F07D0502080F323
:103050001188BFF34F8FBFF36F8FFEE770470000FB
:103060007400002004ED00E00849486828B1401EC3
:10307000486001D180F311887047502080F3118897
:10308000BFF34F8FBFF36F8FFEE700007400002087
:1030900070B5002827D0144DA0F108046168E868D5
:1030A000014207D1502080F31188BFF34F8FBFF347
:1030B0006F8FFEE722683AB1502080F31188BFF38A
:1030C0004F8FBFF36F8FFEE78143616000F07CF8A4
:1030D00060686968084468602046FFF78DFEBDE8B7
:1030E000704000F0B7B970BD5C0000204FF0E020E8
:1030F00000210161816105494FF47A720968B1FBD1
:10310000F2F1491E4161072101617047140000205E
:1031100010B5020014D00F48806B38B1502080F3F6
:103120001188BFF34F8FBFF36F8FFEE700F04CF8AD
:1031300000211046FFF708FD00F08CF9002807D1A8
:1031400005494FF080500860BFF34F8FBFF36F8F7A
:1031500010BD00002000002004ED00E010B586B096
:103160000024039405AA04A903A80494FFF720FFF0
:10317000DDE903010094CDE9011000230EA1104800
:10318000059A00F0D8F80F490028486311D0502064
:1031900080F31188BFF34F8FBFF36F8F4FF0FF3075
:1031A00008630120C8614C6106B0BDE8104000F022
:1031B00041B806B010BD000049444C450000000075
:1031C000092D0008200000200248816B491C816302
:1031D00070470000200000201448816B11B10121CC
:1031E00041627047002141628169B1FA81F1C1F108
:1031F0001F0101EB81020E4951F822306BB101EB46
:10320000820101F108034A6852684A609A4201D17A
:1032100052684A60D16801607047502080F311887D
:10322000BFF34F8FBFF36F8FFEE700002000002039
:10323000A40400201CB5264908780190FF200870DE
:1032400008788DF800009DF800009DF8002000F03F
:10325000F000904207D0502080F31188BFF34F8FC9
:10326000BFF36F8FFEE79DF800001A4B00F050008F
:1032700018700720986005E09DF8002052008DF836
:103280000020401E9DF800201206F5D49860032807
:1032900007D0502080F31188BFF34F8FBFF36F8F9B
:1032A000FEE74FF440709860019808700A48016882
:1032B00041F470010160016841F070410160FFF765
:1032C00015FF00205860FCF72DFF00201CBD0000FA
:1032D00000E400E07400002020ED00E02DE9FF5F35
:1032E0008346DDE90E87994616468A469000FFF729
:1032F000CDFD05001CD05420FFF7C8FD040014D0FC
:103300000020256384F85100CDE90240CDE9008713
:103310004B46324651465846FFF726FD2046FFF7FA
:103320004BFC012004B0BDE8F09F2846FFF7B0FE3B
:103330004FF0FF30F6E7F0B585B0DDE90B640A9D8C
:10334000A6B1DCB1542700972663022684F85160A9
:10335000002604AFCDE90246CDE90057FFF704FD92
:103360002046FFF729FC049805B0F0BD502080F3FB
:103370001188BFF34F8FBFF36F8FFEE7502080F3AC
:103380001188BFF34F8FBFF36F8FFEE72DE9F04138
:103390002E4C0027A06B40B1206A401C2062606A5E
:1033A00000B101273846BDE8F0816669761C666188
:1033B00013D16068006838B1502080F31188BFF3E2
:1033C0004F8FBFF36F8FFEE76068A1686160A060F8
:1033D000A06A401CA062FFF735FD206BDFF870800B
:1033E000864209D36068006880B16068C068C568BB
:1033F000686886420DD220632068C06A00EB8001B5
:1034000058F821000128CAD90127C8E74FF0FF303A
:10341000F1E7281DFFF7B8FDA86A18B105F11800FB
:10342000FFF7B2FDE86A0121A26981401143A16161
:1034300000EB800108EB8100291DFFF7E9FDE86A38
:103440002168C96A8842CDD30127CBE7200000203C
:10345000A40400202DE9F0472C4D00242746A86B3A
:1034600038B1FFF7E1FDA86B401EA863A86B40B11F
:1034700046E0502080F31188BFF34F8FBFF36F8F6A
:10348000FEE72969224E0120D1B3A6F1B409804696
:103490003068E8B1F068C46804F11800FFF774FD03
:1034A000201DFFF771FDE06AAA6908FA00F11143D7
:1034B000A96100EB800109EB8100211DFFF7A8FD48
:1034C000E06A2968C96A8842E2D3C5F82480DFE748
:1034D0000CB1FFF7B7FC2C6A44B14646FFF756FF24
:1034E00000B16E62641EF9D100202862686A38B1AA
:1034F0000849012738070860BFF34F8FBFF36F8F6C
:10350000FFF7B2FD3846BDE8F0870000200000203C
:103510005805002004ED00E08C35000879210008F2
:103520000200000000000000000400000000000095
:10353000000000009835000855200008FDFF00003D
:103540000000000000020000000000000000000079
:10355000010202030405060708090A0B0C0D0E0FF1
:103560001010010202030405060708090A0B0C0DDE
:103570000E0F101000000000000000000102030404
:1035800006070809000000000102030452464944EE
:103590005F5441534B0000004D4F544F525F434F17
:1035A0004E54524F4C000000C83500080000002067
:1035B000840000003C2A00084C36000884000020EB
:1035C0004C2600004C2A000800000000000000000B
:1035D0000100000010000000000000000024F400C2
:1035E00000000000000000000000000000000000DB
:1035F00000000000000000000000000000000000CB
:1036000000000000000000000000000000000000BA
:1036100000000000000000000000000000000000AA
:10362000000000000000000000000000000000009A
:10363000000000000000000000000000000000008A
:0C364000AAAAAAAA0000000000000000D6
:04000005080000ED02
:00000001FF
